:200000000C9462000C948A000C948A000C948A000C948A000C948A000C948A000C948A00B8
:200020000C948A000C948A000C948A000C948A000C948A000C948A000C948A000C948A0070
:200040000C94E0020C948A000C94AF040C94F6040C948A000C948A000C948A000C948A005F
:200060000C948A000C948A0000000000240027002A0000000000250028002B00000000003F
:20008000230026002900040404040404040402020202020203030303030301020408102071
:2000A0004080010204081020010204081020000000070002010000030406000000000000EB
:2000C0000000D30611241FBECFEFD8E0DEBFCDBF11E0A0E0B1E0EAE5FFE002C005900D92F0
:2000E000AC34B107D9F712E0ACE4B1E001C01D92A831B107E1F710E0C4ECD0E004C02297DF
:20010000FE010E94A707C23CD107C9F70E9423070C94AB070C94000089EF91E040E855E2F4
:2001200060E070E00E943F050895CF93DF93C6E1D1E0888160E00E94E103888161E00E94C5
:200140000704229681E0C833D80799F7DF91CF91089582E161E00E94070483E160E00E940D
:200160000704089582E160E00E94070483E161E00E9407040895CF93DF9389EF91E00E9439
:20018000C50580E00E94BC03C0E0D1E0888160E00E94E103229681E0CC30D807B9F7CCE064
:2001A000D1E0888160E00E94E103229681E0C631D807B9F78EE060E00E94E1038FE060E03D
:2001C0000E94E10380E160E00E94E10381E160E00E94E10382E161E00E94E10383E161E07B
:2001E0000E94E10387E060E00E94E10386E061E00E94E10386E061E00E940704DF91CF91FB
:20020000089580914C0190914D010197C9F480914E0190914F01019799F40E9495008091E1
:20022000380161E00E94E1038091380161E00E94070487E691E060E870E04BEA0E94D40263
:200240000895CF93DF938EE00E94BF0390935D0180935C018FE00E94BF0390935F01809301
:200260005E0180E10E94BF03909361018093600181E10E94BF03909363018093620187E037
:200280000E945B049093650180936401C0E0D1E088810E945B04892B49F08091560190918B
:2002A000570101969093570180935601229621E0CC30D20769F7CCE0D1E088810E945B0415
:2002C000892B49F4809152019091530101969093530180935201229681E0C631D80769F791
:2002E0008091640190916501892BF9F480915E0190915F018A589240C397B8F48091600143
:200300009091610186569340C39778F4809162019091630185579340C39738F480915C0149
:2003200090915D018F5D93404CF480915A0190915B01019690935B0180935A01809152016E
:2003400090915301892B99F48091560190915701892B69F480915A0190915B01892B39F42B
:2003600081E090E090934F0180934E0104C010924F0110924E01DF91CF910895CF93DF93EF
:200380008EE00E94BF0390935D0180935C018FE00E94BF0390935F0180935E0180E10E94CF
:2003A000BF03909361018093600181E10E94BF03909363018093620187E00E945B04909334
:2003C000650180936401CCE0D1E088810E945B04892B49F08091500190915101019690935C
:2003E000510180935001229621E0C631D20769F7C0E0D1E088810E945B04892B49F4809101
:2004000054019091550101969093550180935401229681E0CC30D80769F7809164019091AD
:200420006501892BF9F480915C0190915D018A589240C397B8F4809160019091610186563D
:200440009340C39778F4809162019091630185579340C39738F480915E0190915F018F5DF8
:2004600093404CF48091580190915901019690935901809358018091500190915101892B7B
:2004800099F48091540190915501892B69F48091580190915901892B39F481E090E0909327
:2004A0004D0180934C0104C010924D0110924C01DF91CF9108950E94BB000E94B20064E683
:2004C00070E080E090E00E9428030E94BE0164E670E080E090E00E9428030E94A90064E602
:2004E00070E080E090E00E9428030E94210164E670E080E090E00E9428030E94010164E626
:2005000070E080E090E00E9428030895CF93DF9381E08093660187E691E060E870E00E948A
:20052000CD028B3A11F41092660180916601882311F00E945B0280916601882311F58091BC
:20054000380161E00E94E103C0E0D0E08091380161E00E94070468EE73E080E090E00E94F8
:2005600028038091380160E00E94070468EE73E080E090E00E942803219683E0C83ED807D4
:2005800029F7DF91CF9108950E94860268EE73E080E090E00E9428030895F999FECF72BD33
:2005A00061BDF89A80B50895F999FECF1FBA72BD61BD40BD0FB6F894FA9AF99A0FBE089555
:2005C0001F920F920FB60F9211242F933F938F939F93AF93BF9380916C0190916D01A09174
:2005E0006E01B0916F01309170010196A11DB11D232F2D5F2D3720F02D570196A11DB11D8D
:200600002093700180936C0190936D01A0936E01B0936F018091680190916901A0916A01AF
:20062000B0916B010196A11DB11D8093680190936901A0936A01B0936B01BF91AF919F91D4
:200640008F913F912F910F900FBE0F901F9018959B01AC017FB7F894809168019091690173
:20066000A0916A01B0916B0166B5A89B05C06F3F19F00196A11DB11D7FBFBA2FA92F982F6E
:200680008827860F911DA11DB11D62E0880F991FAA1FBB1F6A95D1F7BC012DC0FFB7F894F5
:2006A0008091680190916901A0916A01B0916B01E6B5A89B05C0EF3F19F00196A11DB11DEF
:2006C000FFBFBA2FA92F982F88278E0F911DA11DB11DE2E0880F991FAA1FBB1FEA95D1F753
:2006E000861B970B885E9340C8F2215030404040504068517C4F211531054105510571F660
:200700000895789484B5826084BD84B5816084BD85B5826085BD85B5816085BDEEE6F0E01A
:20072000808181608083E1E8F0E01082808182608083808181608083E0E8F0E08081816064
:200740008083E1EBF0E0808184608083E0EBF0E0808181608083EAE7F0E080818460808309
:200760008081826080838081816080838081806880831092C100089580933A010895982F10
:200780008E3008F09E50977080913A018295880F880F807C892B80937C0080917A0080646F
:2007A00080937A0080917A0086FDFCCF2091780040917900942F80E030E0282B392BC901AC
:2007C0000895482F50E0CA0186569F4FFC0124914A575F4FFA0184918823C1F0E82FF0E0EC
:2007E000EE0FFF1FE859FF4FA591B491662341F49FB7F8948C91209582238C939FBF0895A3
:200800009FB7F8948C91822B8C939FBF0895482F50E0CA0182559F4FFC012491CA01865682
:200820009F4FFC0194914A575F4FFA013491332309F440C0222351F1233071F0243028F49B
:200840002130A1F0223011F514C02630B1F02730C1F02430D9F404C0809180008F7703C04C
:20086000809180008F7D8093800010C084B58F7702C084B58F7D84BD09C08091B0008F7761
:2008800003C08091B0008F7D8093B000E32FF0E0EE0FFF1FEE58FF4FA591B4912FB7F89487
:2008A000662321F48C919095892302C08C91892B8C932FBF0895682F70E0CB0182559F4FF7
:2008C000FC012491CB0186569F4FFC0144916A577F4FFB019491992319F420E030E03CC079
:2008E000222351F1233071F0243028F42130A1F0223011F514C02630B1F02730C1F02430EC
:20090000D9F404C0809180008F7703C0809180008F7D8093800010C084B58F7702C084B5B2
:200920008F7D84BD09C08091B0008F7703C08091B0008F7D8093B000892F90E0880F991F10
:2009400084589F4FFC01A591B4918C9120E030E0842311F021E030E0C901089508951F92BA
:200960000F920FB60F9211242F933F934F938F939F93EF93FF934091C6002091B1013091A2
:20098000B2012F5F3F4F2F7330708091B3019091B4012817390759F0E091B101F091B2018C
:2009A000EF58FE4F40833093B2012093B101FF91EF919F918F914F913F912F910F900FBEC9
:2009C0000F901F901895E0910502F0910602E05CFF4F8191919120813181821B930B8F73CD
:2009E0009070892B11F00E94AE0408951F920F920FB60F9211242F933F934F935F936F93FA
:200A00007F938F939F93AF93BF93EF93FF932091F5013091F6018091F7019091F801281707
:200A2000390731F48091C1008F7D8093C10016C0E091F701F091F801EB54FE4F4081809188
:200A4000F7019091F801019660E470E00E945C079093F8018093F7014093C600FF91EF9184
:200A6000BF91AF919F918F917F916F915F914F913F912F910F900FBE0F901F901895AF927E
:200A8000BF92DF92EF92FF920F931F93CF93DF93EC017A018B01DD24403081EE580780E0C7
:200AA000680780E0780711F0DD24D39491E0A92EB12CEC89FD89DD2069F0C5010E8C02C0E7
:200AC000880F991F0A94E2F7808360E079E08DE390E005C0108260E874E88EE190E0A80151
:200AE00097010E946F072150304040405040569547953795279580E12030380720F0DD2009
:200B000011F0DD24D6CFE889F9893083EA89FB892083EE89FF89408121E030E0C9010A8CBD
:200B200002C0880F991F0A94E2F7482B4083EE89FF894081C9010B8C02C0880F991F0A9427
:200B4000E2F7482B4083EE89FF894081C9010C8C02C0880F991F0A94E2F7482B4083EE892F
:200B6000FF8980810D8C02C0220F331F0A94E2F7209528232083DF91CF911F910F91FF9045
:200B8000EF90DF90BF90AF900895CF93DF93DC011E968D919C911F97EC01C05CDF4FFC01A2
:200BA000EE5BFF4F288139818081918128173907C9F75696ED91FC915797408121E030E032
:200BC000C9015A960C905A9702C0880F991F0A94E2F78095842380835696ED91FC915797A2
:200BE0004081C9015B960C905B9702C0880F991F0A94E2F78095842380835696ED91FC91AD
:200C000057974081C9015C960C905C9702C0880F991F0A94E2F78095842380835696ED9129
:200C2000FC91579780815D960C905D9702C0220F331F0A94E2F72095282320831C96ED9126
:200C4000FC911D97EE5BFF4F8081918192938293DF91CF910895DC011C96ED91FC911D97B4
:200C6000E05CFF4F2191319180819181281B390B2F733070C9010895DC011C96ED91FC9199
:200C80001D97E05CFF4F20813181E054F040DF01AE5BBF4F8D919C9111972817390719F4E9
:200CA0002FEF3FEF07C08D919C91E80FF91F8081282F30E0C9010895DC011C96ED91FC915E
:200CC0001D97E05CFF4F20813181E054F040DF01AE5BBF4F8D919C9111972817390719F4A9
:200CE0002FEF3FEF10C08D919C911197E80FF91F20818D919C91119701968F739070119602
:200D00009C938E9330E0C9010895FC0186859785DC01A05CBF4FFC01EE5BFF4F2D913C91E2
:200D200011978081918128173907C1F70895CF93DF93EC01462FEE85FF85E05CFF4F80816C
:200D40009181E054F040019660E470E00E945C079C01DF01AE5BBF4F8D919C911197281727
:200D60003907D1F3E05CFF4F80819181E054F040E80FF91F4083EE85FF85E05CFF4F318367
:200D80002083EE89FF89208181E090E00D8C02C0880F991F0A94E2F7282B208381E090E057
:200DA000DF91CF9108951092FC011092FB0188EE93E0A0E0B0E08093FD019093FE01A0932A
:200DC000FF01B09300028FE391E09093FA018093F90181E791E0909306028093050285EB32
:200DE00091E0909308028093070285EC90E090930A028093090284EC90E090930C028093E7
:200E00000B0280EC90E090930E0280930D0281EC90E09093100280930F0286EC90E0909359
:200E200012028093110284E08093130283E08093140287E08093150285E08093160281E0DE
:200E4000809317020895CF93DF930E9481030E948C00C3EED4E00E94C4022097E1F30E94A7
:200E6000E304F9CFCF92DF92EF92FF920F931F93CF93DF937C016B018A01C0E0D0E00FC024
:200E8000D6016D916D01D701ED91FC910190F081E02DC7010995C80FD91F01501040011531
:200EA000110571F7CE01DF91CF911F910F91FF90EF90DF90CF90089597FB092E07260AD07C
:200EC00077FD04D02ED006D000201AF4709561957F4F0895F6F7909581959F4F0895A1E22C
:200EE0001A2EAA1BBB1BFD010DC0AA1FBB1FEE1FFF1FA217B307E407F50720F0A21BB30B91
:200F0000E40BF50B661F771F881F991F1A9469F760957095809590959B01AC01BD01CF014F
:200F20000895AA1BBB1B51E107C0AA1FBB1FA617B70710F0A61BB70B881F991F5A95A9F7F1
:200F400080959095BC01CD010895EE0FFF1F0590F491E02D0994F894FFCF000002000400F0
:200F600008000A000C0001000300050009000B00020003000400050006000700080009000A
:200F80000A000B000C000E000F0010001100120013000D000100000000970632072B065C5C
:200FA000063C0685060051E107C0AA1FBB1FA617B70710F0A61BB70B881F991F5A95A9F7D6
:200FC00080959095BC01CD010895EE0FFF1F0590F491E02D0994F894FFCF00000200040070
:200FE00008000A000C0001000300050009000B00020003000400050006000700080009008A
:20100000FFFFFFFFFFFFFFFFFFFFFFFFFFFFFFFFFFFFFFFFFFFFFFFFFFFFFFFFFFFFFFFFF0
:20102000FFFFFFFFFFFFFFFFFFFFFFFFFFFFFFFFFFFFFFFFFFFFFFFFFFFFFFFFFFFFFFFFD0
:20104000FFFFFFFFFFFFFFFFFFFFFFFFFFFFFFFFFFFFFFFFFFFFFFFFFFFFFFFFFFFFFFFFB0
:20106000FFFFFFFFFFFFFFFFFFFFFFFFFFFFFFFFFFFFFFFFFFFFFFFFFFFFFFFFFFFFFFFF90
:207E0000112484B714BE81FFF0D085E08093810082E08093C00088E18093C10086E08093FC
:207E2000C20080E18093C4008EE0C9D0259A86E020E33CEF91E0309385002093840096BBAD
:207E4000B09BFECF1D9AA8958150A9F7CC24DD2488248394B5E0AB2EA1E19A2EF3E0BF2E79
:207E6000A2D0813461F49FD0082FAFD0023811F0013811F484E001C083E08DD089C0823404
:207E800011F484E103C0853419F485E0A6D080C0853579F488D0E82EFF2485D0082F10E0A0
:207EA000102F00270E291F29000F111F8ED068016FC0863521F484E090D080E0DECF84364D
:207EC00009F040C070D06FD0082F6DD080E0C81680E7D80618F4F601B7BEE895C0E0D1E0ED
:207EE00062D089930C17E1F7F0E0CF16F0E7DF0618F0F601B7BEE89568D007B600FCFDCF1A
:207F0000A601A0E0B1E02C9130E011968C91119790E0982F8827822B932B1296FA010C016F
:207F200087BEE89511244E5F5F4FF1E0A038BF0751F7F601A7BEE89507B600FCFDCF97BE85
:207F4000E89526C08437B1F42ED02DD0F82E2BD03CD0F601EF2C8F010F5F1F4F84911BD0B8
:207F6000EA94F801C1F70894C11CD11CFA94CF0CD11C0EC0853739F428D08EE10CD085E9AE
:207F80000AD08FE07ACF813511F488E018D01DD080E101D065CF982F8091C00085FFFCCF0A
:207FA0009093C60008958091C00087FFFCCF8091C00084FD01C0A8958091C6000895E0E68F
:207FC000F0E098E1908380830895EDDF803219F088E0F5DFFFCF84E1DECF1F93182FE3DF47
:207FE0001150E9F7F2DF1F91089580E0E8DFEE27FF270994FFFFFFFFFFFFFFFFFFFF040425
:00000001FF
